:060000000A128A11122809
:10000800FE000308F9000408FA000A08FB0083123E
:1000180003137F08FC000A128A1133280A128A1176
:10002800572900308A000408840A820700344934BA
:100038004E34543445345234523455345034543494
:1000480020344F3443344334553452340034573415
:10005800413452344E3449344E344734003400303D
:10006800A6000030A7002708803AFF0080307F02F2
:10007800031D402807302602031C4328442846282D
:10008800742874280A128A11E7200A128A11831226
:1000980003130708F600760787000330F800883056
:1000A800F7005630F600F60B5728F70B5728F80BD1
:1000B80057288B10013083120313A6070318A70AC9
:1000C8000030A7072708803AFF0080307F02031D11
:1000D8006F2807302602031C7228732846287428C4
:1000E80001300A128A1131210A128A117C088312FE
:1000F8000313FF007B088A007A08840079088300CC
:10010800FE0E7E0E0900F930831603138600831253
:1001180003138601C0308316031387008312031369
:100128008701831603138801831203138801D030D3
:100138008B008B108316031301170B168B170A12EB
:100148008A1105210A128A11A92801308312031382
:1001580087000330A5008830A4005630A300A30B05
:10016800B328A40BB328A50BB328A928A9280A12D9
:100178008A111228F500D928750884000A128A11F4
:1001880015200A128A110A128A1144210A128A11A8
:100198000130F3007308F5070730F4007D30F300F1
:1001A800F30BD428F40BD428D928750884000A1234
:1001B8008A1115200A128A110038031DE428E5283F
:1001C800C028E62808008B1CEA28EB28042985307B
:1001D8000A128A1131210A128A1111300A128A115F
:1001E800BE200A128A11C1300A128A1131210A125C
:1001F8008A1101300A128A11BE200A128A110429B2
:10020800080001300A128A111E210A128A110630CA
:100218000A128A111E210A128A110C300A128A1136
:100228001E210A128A1138300A128A111E210A1256
:100238008A11080083120313A2002208880086107E
:1002480006150730A1007D30A000A00B2929A10BBD
:1002580029298312031306110800F2007208831279
:1002680003138800861006150730F1007D30F00072
:10027800F00B3C29F10B3C298312031306110800EB
:10028800F2007208831203138800861406150730DB
:10029800F1007D30F000F00B4F29F10B4F2983124C
:1002A800031306110800A601A701A801A9018301EB
:0602B8000A128A118728DA
:00000001FF
